:020000040800F2
:10C0000000C0002079C1000831C1000875C10008D6
:10C0100031C1000831C1000831C100080000000032
:10C0200000000000000000000000000031C1000816
:10C0300031C100080000000031C1000881C40008BF
:10C0400031C1000831C1000831C1000831C1000808
:10C0500031C1000831C1000831C1000831C10008F8
:10C0600031C1000831C1000831C1000831C10008E8
:10C0700031C1000831C1000831C1000831C10008D8
:10C0800031C1000831C1000831C1000899C400085D
:10C090009FC4000831C1000831C1000831C1000847
:10C0A00031C1000831C1000831C1000831C10008A8
:10C0B00031C1000891C4000831C1000831C1000835
:10C0C00031C1000831C1000831C1000831C1000888
:10C0D00031C1000831C1000831C1000831C1000878
:10C0E00031C1000831C10008A3C4000831C10008F3
:10C0F00031C1000831C1000831C1000831C1000858
:10C1000031C1000831C1000831C1000831C1000847
:10C1100031C1000831C1000831C1000831C1000837
:10C1200031C1000831C1000831C1000831C1000827
:10C13000EFF30583C3F30803B3F1100214D452B232
:10C14000002A0DDB0120510902F01F02904001F18D
:10C150002002064941F82200BFF34F8FBFF36F8FD3
:10C16000034A0F3B13607047FEE700BF00E100E0A9
:10C170001C310020FEE7000008B500F033F8094844
:10C18000094A0A49121A04F0E5F80948094A002147
:10C19000121A03F053FF084B084A9A6000F084F922
:10C1A000FEE700BF003000201C3100203C140108D5
:10C1B0001C3100206884002000ED00E000C0000871
:10C1C000BFF34F8F0549064BCA6802F4E062134380
:10C1D000CB60BFF34F8F00BFFDE700BF00ED00E075
:10C1E0000400FA051F4A08B5D3691F4943F0C0533C
:10C1F000D361D3690B6843F480730B60536A516A4F
:10C2000013F0005341F080715162A2F5D23218BF91
:10C21000936851684EF2C35218BF0133914201D066
:10C22000022B19D9114A116850686FF31001B1F14E
:10C23000005F11D10E4901444FF6FE7081420BD8C8
:10C2400000210C4B0C48596099601168536882605A
:10C2500081F308889847FEE70021064A5160936001
:10C2600008BD00BF001002400070004000C001087F
:10C27000FF3FFEF7006C004000ED00E045F2555234
:10C28000064B1A6004225A6040F2E2429A604AF673
:10C29000AA221A604CF6CC421A6070470030004067
:10C2A0004AF6AA22014B1A60704700BF00300040D6
:10C2B0000022014B9A607047006C00404EF2C3525E
:10C2C00008B5024B5A60FFF77BFF00BF006C0040CF
:10C2D000002208B5014B5A60FFF772FF006C004066
:10C2E0000068704770B50446044D2E682B689B1B90
:10C2F000A34200D370BDFFF7D3FFF7E7E438002077
:10C300000CB42DE9F04190B016AB53F8042B03ADFB
:10C3100004460E4628463221029304F091F828463E
:10C3200003F05EFE2023312820D132220027114B5A
:10C33000294602FB043840468DF83D7003F0CEFEDE
:10C3400078B104EBC404640029464046C4F1E0041B
:10C3500003F0A2FF3B4632463846A1B20095F7F7FC
:10C3600073FF10B0BDE8F04102B070472B540130AC
:10C37000D9E700BF2431002010B5044601780C48ED
:10C3800000F060FE61780A4800F05CFEA178084881
:10C3900000F058FEE178064800F054FE2179044888
:10C3A00000F050FE61790248BDE8104000F04ABE3E
:10C3B000D837002008B5044800F078FEBDE80840F2
:10C3C000002002F007BF00BFD8370020F8B5069D57
:10C3D0000F46402D1C4628BF4025164603468522A1
:10C3E0000C490D4800F039FE39460B4800F02AFE92
:10C3F0002146094800F026FEE9B2074800F022FE77
:10C40000314605FB04F2044800F00BFEBDE8F8409D
:10C41000FFF7D0BF45C40008D837002010B50C4640
:10C420000346A0220549064800F017FE21460448AD
:10C4300000F008FEBDE81040FFF7BCBF45C400088F
:10C44000D837002038B505460C4691B938BD22468C
:10C450002946002002F0B6FE241A0544F6D000203A
:10C4600002F0B8FE00214FF0FF3002F065FBFFF74D
:10C4700017FF002002F074FE0028E8D1E6E7000074
:10C48000024A136801331360704700BFE43800208C
:10C4900000211320F7F7DABE002003F009BAFFF7F6
:10C4A000FBBFFFF7F9BF00002DE9F04FC14C9BB077
:10C4B000FFF7E4FE00210320F7F7C8FE626802F0F0
:10C4C0000C03082B40F0E481C2F383430233102BAA
:10C4D00028BF1023D10340F1D981B74912F4003F9E
:10C4E000B64A08BF0A4653434FF47A72B44EF0215D
:10C4F0003360B3FBF2F34FF0E022013B5361B14BE9
:10C50000002583F823100723956128461361F7F768
:10C5100081FE28464FF6E071AB4AFFF7F1FE4FF679
:10C52000E0710820A94AFFF7EBFEF7F7ABFE00F138
:10C530007843B3F5802F054606D3A54B00F1604242
:10C54000B2F5404F28BF1D46F7F79AFE00F1784339
:10C55000B3F5802F06D39E4B00F16042B2F5404FF9
:10C5600028BF18462B469B4A00904FF6FF710120CA
:10C57000FFF7C6FE3368984A934240F08B816368A8
:10C5800023F480036360954B4FF6FF710220944AB9
:10C59000FFF7B6FE4FF6FF710A20924AFFF7B0FE92
:10C5A0004FF6FF710B20904AFFF7AAFE00F018FF2C
:10C5B0004FF480128D4BC3F88020BFF34F8FBFF331
:10C5C0006F8F4FF40022C3F88020BFF34F8FBFF36B
:10C5D0006F8F4FF48062C3F88420BFF34F8FBFF397
:10C5E0006F8FE3694FF0000823F40003E3612369D0
:10C5F0007F4D43F4000323612369C24623F4000303
:10C600002361A369142043F00403A3616B6823F43E
:10C61000702343F400336B604FF480536B61FFF77A
:10C6200061FE6B68002023F4702343F480236B6069
:10C63000E3690AA943F40003E3616E4B1B88ADF87C
:10C64000283001F0CDFBCDE90388FFF729FE00215A
:10C650004FF0FF3002F070FA002002F095FD044622
:10C66000002840F022810420F7F7F4FD10F4045F65
:10C67000614D624B00F0A9831C60002002F070FD48
:10C680000646B8F1000F04D018B95D4B598B00F085
:10C690006BFE286800F0ECFE044600283FD0002E18
:10C6A0003BD00379574913F008070CBF8422872237
:10C6B0000378554800F0D1FC2168534800F0EBFCAA
:10C6C0002179514800F0BEFCA1684F4800F0E3FC1E
:10C6D00004F10C00FFF750FEA17C4B4800F0B2FCC7
:10C6E000E17C494800F0AEFC217D474800F0AAFCFF
:10C6F000002F0CBF96210021434800F0C2FCE18AC4
:10C70000414800F0BEFCE28A3F4802EB420204F1DD
:10C71000180100F086FCFFF74DFE01F003F8BAF1B6
:10C72000000F06D141F288332A689A4203D9FFF7F5
:10C73000BFFD4FF0010A2B68039A9B1AFA2B40F2B7
:10C7400097802B68039301F037FF002840F0608347
:10C7500001F02AFF2D4C2E4B002818BF1C4601F07B
:10C7600023FF40F2FF77002823460CBF39464FF4E1
:10C77000FC61284A0320FFF7C3FD002002F0F0FC13
:10C7800000284FF000000CBF3C464FF4FC6402F060
:10C79000E7FC214A214B2146002808BF1346204AC6
:10C7A0000420FFF7ADFD0620F7F754FD4FF47A7132
:10C7B0002A6837E00010024000127A0000093D00AC
:10C7C000E038002000ED00E0891101089F11010808
:10C7D00024110108BA11010800A24A042811010815
:10C7E000C9110108D3110108F811010800E100E0A6
:10C7F000000801404C130108E438002020310020DB
:10C800005C6B002045C40008D83700206C1101087B
:10C810006211010883120108821101087D110108CB
:10C820008D1201080346B2FBF1F206204FF6FF71AC
:10C830000092A04AFFF764FD9F4A05201378916A91
:10C84000052B28BF00230191D2684FF6FF7100929B
:10C850009A4A52F823309A4AFFF752FD994B1A68C8
:10C8600032B11B6839460720974A013BFFF748FD64
:10C870002B68049A9B1AB3F57A7F05D92B6801219E
:10C8800004200493F7F7E2FCB046DEE68F4A2AE67E
:10C890008F4B29E68F4A934209BF63688E4B43F45E
:10C8A0008003636008BF8D4B6EE6402200200AA91A
:10C8B00002F080FC4FF0000905900DF1280B059B5C
:10C8C0004B453FF4C9AE1BF8011B854808AB07AACE
:10C8D00000F04CFB002840F37382DDE907522F463D
:10C8E00017F8023B6C78013B961E3E2B00F26682E5
:10C8F000DFE813F03F005800610064026402640244
:10C9000064026402640264026402640264026402F7
:10C910006402040115011E012901320144013F0195
:10C9200064026402640264026402640264026402D7
:10C9300064024D0181019601A301C501D701640282
:10C9400064026402640264026402640264026402B7
:10C950006402F70103021902210242026402640226
:10C960006402640264026402640264026402640297
:10C9700051020EB10121CEE08122234659495A4885
:10C9800000F06BFB0121584800F07BFBF7F756FCE9
:10C990000146554800F07FFB17225449524800F0E9
:10C9A00040FB84E082224F4923464F4800F055FB6C
:10C9B00032463946F2E7002EDCD123463E4C832234
:10C9C0004849494800F049FB2178474800F03AFBC4
:10C9D00000F02EFCC1B2444800F034FB601CFFF7AD
:10C9E000CBFCA168404800F056FBE1683E4800F0EF
:10C9F00052FB218A3C4800F044FB618A3A4800F02F
:10CA000040FB617D384800F01DFBA17D364800F0F9
:10CA100019FBE17D344800F015FB218B324800F012
:10CA200030FB618B304800F02CFB217F2E4800F05A
:10CA300009FB216A2C4800F02EFB94F824102A48A8
:10CA400000F000FB94F82510274800F0FBFA94F85A
:10CA50002610254800F0F6FAA16A234800F01BFBD7
:10CA60000620F7F7F7FB81B21F4800F00AFB0C2005
:10CA7000F7F7F0FBC1B21C4800F0E4FA1C4B1A486F
:10CA800019684FF47A73B1FBF3F100F004FB194B12
:10CA90001548198800F0F5FA174B1348198800F06B
:10CAA000F0FA00F0CFFE01460F4800F0EAFAFFF777
:10CAB00081FCE1E0971201085C6B0020381301084B
:10CAC000B21201081C310020D112010800093D00FA
:10CAD00000127A00006CDC02381101084A110108CA
:10CAE0007C33002045C40008D8370020A31101087A
:10CAF000E43800208A6B0020886B0020042E7FF42D
:10CB000039AF6B792A79E978A87800F099FB011E92
:10CB100018BF012149002046FFF780FCACE0042E3D
:10CB20007FF428AF3846FFF7DBFB00F0A9FBEEE708
:10CB3000052E7FF41FAFB5F805302A79E978A8787B
:10CB400000F0FCFBE3E7032E7FF414AFB5F803100D
:10CB5000A87800F009FCDAE7062E7FF40BAFE81C9A
:10CB6000FFF7BEFBAB780146EA79184600F070FE8D
:10CB7000CDE73146384600F047FFC8E7022E7FF484
:10CB8000F9AEE978A87800F017FC0021C3E7002E81
:10CB90007FF4F0AE0920F7F75DFB0127054602465A
:10CBA00031461C2320460097FFF710FC0720F7F7BB
:10CBB00051FBAB8802463B44394620460093142380
:10CBC000FFF704FC0820F7F745FBEB880246063325
:10CBD0000221204600931423FFF7F8FB0A20F7F701
:10CBE00039FB2B8902463B44009303210A2320464C
:10CBF000FFF7ECFBC9E7002E7FF4BCAE09A809964D
:10CC000000F0A2FD0546862223468249824800F0B4
:10CC100024FAA9B2804800F034FA2A460999BDE600
:10CC2000B6F5806F3FF6A6AEB1B2384600F0ACFD67
:10CC3000002814BF062100216DE7082E7FF49AAE6C
:10CC40003846FFF74DFB0346A81DFFF749FB014699
:10CC5000184600F097FF0546C31C032B96BF6F4A8A
:10CC60000221D15C2046FFF7D9FB2DB940F2FF71BC
:10CC700009206B4AFFF744FB09F101091FE6032E67
:10CC80007FF678AE3846FFF72BFB063AA91D00F079
:10CC9000B3FF00283FF479AF033014BF022106210F
:10CCA00039E7082E7FF466AE3846FFF719FB0346D6
:10CCB000A81DFFF715FB0146184600F0EBFF0146E3
:10CCC00008B1022127E72046FFF7A8FB40F2FF71D9
:10CCD0000920544AFFF714FB6420FFF703FB01F01F
:10CCE00031F8052E7FF446AEE81CFFF7F9FAAB7871
:10CCF00001461846F7F7AAFA47E7012E7FF43AAE45
:10CD0000A878F7F7A7FA06462346B12241494248D8
:10CD100000F0A3F9A978404800F094F931463E4864
:10CD200000F0B9F9C3E6022E7FF424AEE978A878C2
:10CD3000F7F78EFA29E7052E7FF41CAE3846FFF789
:10CD4000CFFA10F003070646BBD1AD796B1E3F2B1F
:10CD5000B7D8304930482346B32200F07EF9314637
:10CD60002D4800F098F956F827102B48013700F0AD
:10CD700092F9BD42F7D89AE6082E7FF4FBAD38460B
:10CD8000FFF7AEFA10F0030103469AD1A81DFFF792
:10CD9000A7FA1860BFE6012E7FF4ECADAB78012B4B
:10CDA0008FD800212046FFF739FB3220FFF79AFA8F
:10CDB000AB780BB1FFF782FAFFF78AFA0321AAE6F4
:10CDC0003FF45AAF04210020A6E61A6832B92A6857
:10CDD00012B12A681A6050E40122FBE72B689B1A03
:10CDE000B3F5FA6FFFF449AC40F2FF7109200E4A27
:10CDF000FFF786FA0420F7F72DFAC04310F4C64F68
:10CE000003D16420FFF76EFAD4E7FFF749FAF1E7A0
:10CE1000064CA4E445C40008D837002032130108AA
:10CE20002312010841120108631201085811010878
:10CE300000487047BF130108004870477413010889
:10CE400030B585B068B940F2094201201C4B5A80C8
:10CE50001B4A431C10465B0043F44073138005B02B
:10CE600030BD032823D1F7F7E9F901A91C220B46AD
:10CE7000144D20FA02F404F00F042C5D043A01F87A
:10CE8000014B141DF5D100221C468DF80C202046C4
:10CE900003F0A6F8202828BF20202346084A21189E
:10CEA0009942D5D013F8014B22F8024FF8E7042835
:10CEB00003D8054B53F82040E9E70020CFE700BF37
:10CEC000E83800204E1301086013010890F80311A0
:10CED00010B501310446017150F8043B9847002316
:10CEE00084F8033110BD70B505460C468E18B44267
:10CEF00000D170BD14F8012B1AB92846FFF7E6FFE0
:10CF0000F5E795F803114B1CDBB22944FE2B85F89D
:10CF100003314A71EBD1F0E7F0B5134E7488ACB928
:10CF2000B44641F2210E082723029BB21DB2002D08
:10CF3000B5BF8EEA45055B00ABB29BB2013FF5D1B0
:10CF40000134B4F5807F2CF8023BECD10A449142C5
:10CF500000D1F0BD11F8013B83EA102336F81330FD
:10CF6000000280B25840F2E72A3900202DE9F84348
:10CF7000054616461F46D0F8540471B140F251439D
:10CF800098428DBF0123431CC5F85434C5F858346A
:10CF900098BF29540020BDE8F883D5F85844C5F857
:10CFA0005414C5F858140028F4D014B14FF0FF30D1
:10CFB000F1E72146A0466B5C002BF7D003EB010C98
:10CFC0008445F3D80122294405EB040E9A420ADB7A
:10CFD000013CFF2B1C440CD084450CD205F8048086
:10CFE00001346146E7E711F8019F01320EF8019B19
:10CFF000ECE78445F5D3032CD8DD2B1913F8012C6D
:10D0000013F8028C023C48EA0228294622464FF6D1
:10D01000FF70FFF781FF4045C8D1356001203C60BB
:10D02000B9E770B50446B0F804010D461646FFF79F
:10D0300073FF3246A4F8040129462046BDE870403B
:10D04000FFF751BF07B501228DF807100DF1070159
:10D05000FFF7E7FF03B05DF804FB38B51D4600237A
:10D0600080F803314FF6FF7304460160A0F80431E5
:10D070001146FFF7E7FF29462046BDE83840FFF795
:10D08000E1BF07B50222ADF8041001A9FFF7C9FFFF
:10D0900003B05DF804FB07B5042201910DEB02011A
:10D0A000FFF7BFFF03B05DF804FB000013B50446B3
:10D0B000B0F8043101A90222ADF80430FFF713FFE4
:10D0C0002046FFF703FF01212368024802B0BDE8B4
:10D0D00010401847D1130108024B1A780AB10122F7
:10D0E0001A707047423B002001F44073B3F5807F13
:10D0F00002D0B3F5007F01D181F44071064A00EB04
:10D10000400000F118031344024411760A0AC1F3E7
:10D1100001415A7099707047443B002010B50A4C89
:10D1200080B9637DA17D41EAC3012020F7F78EF825
:10D13000E17D2120F7F78AF8218B2220BDE81040FD
:10D14000F7F784B82021F0E75C6B002070B5164B30
:10D1500005461C78042C1BD1144B1A68144B0AB9D1
:10D160001A8812B10121134A1170002601201E8075
:10D17000FFF7D4FF01210620F7F768F896220E4B3F
:10D180001E800E4B1A800E4B1D600E4B1C7070BD26
:10D1900000200D4B02241870FFF7C0FF012106206C
:10D1A000F7F754F8EFE700BF5C6B0020343B00203A
:10D1B000383B00202C3B00202E3B00202A3B002047
:10D1C0003C3B0020423B0020403B002008B50920AA
:10D1D000F7F740F880880130C0B208BD38B5134C6D
:10D1E0000920227D631C251D002A18BF1D46A17839
:10D1F000F7F72CF80A206178F7F728F80020E17893
:10D20000F7F724F80B206978F7F720F8237D5BB156
:10D21000FFF7DCFF01460C20F7F718F8A97801208A
:10D22000BDE83840F7F712B82978F4E75C6B0020C6
:10D23000024B1878003818BF01207047423B00208D
:10D240000128F8B504460E4615461F4602D94FF090
:10D25000FF30F8BDFFF7BAFFB042F8D9012DF6D87C
:10D26000064804EB4404204446708570C770FFF7FD
:10D27000B5FFFFF731FF0020EBE700BF5C6B00203C
:10D280002A4B421E9A422DE9F04105464BD8DFF861
:10D29000A080284E404594BF00270127337DBB4224
:10D2A0000DD0394605203775F6F7D0FF454594BFB8
:10D2B000012103210420F6F7CBFFFFF78FFF45453F
:10D2C000284640F24A4128BF4046B1FBF0F11A4BD4
:10D2D0004A1CB3FBF2F400F1FF3C6444B4FBF0F4ED
:10D2E0004FF6FF7C013C644528BF6446012C38BFE3
:10D2F000012404FB0222454588BF184603EB520374
:10D30000B3FBF2F3B060BB400720F360318274825C
:10D31000F6F79CFF08202146F6F798FFFFF7DCFEA2
:10D320000020BDE8F0814FF0FF30FAE7FFA14A048A
:10D33000005125025C6B002000A24A04032810B5AE
:10D340000DD807290BD8074C60750020E2752383A0
:10D35000A175FFF7E3FEFFF7BFFE002010BD4FF001
:10D36000FF30FBE75C6B0020042818D80D4B01D17F
:10D370001A7DA2B9002908BF6421021E18BF01222C
:10D3800018705983084B04281A7006D10023074AE5
:10D390001360074A1370074A1380002070474FF04C
:10D3A000FF3070475C6B0020423B0020343B002084
:10D3B0002C3B0020383B0020642810B50C4606D8D2
:10D3C000064B014683F825000220F6F73FFF642C48
:10D3D0009CBF024B83F8264010BD00BF5C6B002051
:10D3E000F8B53227002401212420F6F72FFF002171
:10D3F0001420F6F72BFF00210520F6F727FF194D23
:10D4000001210420F6F724FF3946022085F8257013
:10D4100085F82640F6F71AFFFFF7D8FEC0F3470657
:10D420009A23224631462046FFF70AFF9A232246D6
:10D4300031460120FFF704FF0B48FFF721FF234689
:10D440009A2201212046FFF779FF3A464FF47A717C
:10D45000204600F0FDF964236B83044B2C701C7094
:10D46000F8BD00BF5C6B002040420F00423B002033
:10D470002DE9F8439C4E04463378002B40F0F380AE
:10D48000DFF8688298F80030013B042B5FD8DFE8B2
:10D4900013F05C0060008300F1000500DFF850929B
:10D4A000944F3A88B9F80030FF2A40F2EB80924D51
:10D4B000B9F80020EB68132B40F201811421B3FB73
:10D4C000F1F3B2F5805F80F0FC803A88002A3ED00C
:10D4D000FF2A06D8934204D9884B1B68E31A312BE4
:10D4E00035D92021864BDFF81CC259618649874B0C
:10D4F0000878DCF800E000280CBF0820182018711C
:10D50000E868B5F8019098608148C3F800E090F8A9
:10D510000280407983F80E805874687DB5F80480E5
:10D520009874A87DDA82D874E87DA3F80C90A3F8EB
:10D530000F80187500230B703B80704B72441C6089
:10D540000123CCF8002033708DE0FFF7FFFD0020B1
:10D550008AE00220F6F77EFE30B10022654B1A8089
:10D56000032388F80030F2E763490B78022BEED1F1
:10D57000684A1378002BEAD1674B498B1B68E31A82
:10D580008B42E4D3012420461470FFF7C7FD2146E7
:10D590000620F6F75BFEDAE70320F6F75BFE554D53
:10D5A00018BB4FF400772B88B3F5805F21D20120A0
:10D5B000F6F750FEB5F8009050B909F101032B8041
:10D5C000F6F738FE01464846FFF78EFD013FEAD1E7
:10D5D0002B88B3F5805FBAD30BE07B1C2B80F6F76A
:10D5E00029FE01463846FFF77FFD2F88B7F5805F9B
:10D5F000F3D32022424B464D5A613F4A434B916A36
:10D60000107D19604349AF780978B2F801C000294C
:10D610000CBF01210221003818BF012041EA40114E
:10D6200010781971032804BF41F004011971D16801
:10D63000A3F80CC0996039496D798F7097880328D9
:10D64000A3F80F704D71517D9974917DD27DD9747D
:10D650001A754FF48052DA824FF00103337005D10E
:10D66000002388F800302948BDE8F8832046FFF7FA
:10D670006DFDF8E70220F6F7EDFD00283FF467AFF7
:10D6800005236EE7B3F5805FBFF411AF0120F6F715
:10D69000E1FD00287FF40BAFF6F7CCFDB9F80030C0
:10D6A00001465A1CA9F800201D4A12889A423FF6EA
:10D6B000F8AE3888431C3B80FFF716FDF1E60123E6
:10D6C000FFE601210620F6F7C1FD00239622A9F806
:10D6D0000030134B1A8004233A8888F80030002A5F
:10D6E0007FF4FFAE33E700BF413B0020423B002008
:10D6F0002E3B0020383B00205C6B0020303B00209C
:10D7000000100140343B00202C3B0020443B002013
:10D710005D6B0020403B00203C3B0020503B002044
:10D720002A3B0020064B1A784AB100211970054B9C
:10D730009A6A01329A621A78032A08BF19707047F0
:10D74000413B00205C6B002070B50C4C0C4B2268F8
:10D7500005469A4201D0002070BDA288B2F5806FC4
:10D76000F9D8084E4FF6FF703146FFF7D5FBE38836
:10D770008342F0D1A0882E60EEE700BF00B8020817
:10D780004453515308B80208B1F5806F73B506468B
:10D790000C4626D81B4800F0A5F9054608BB74B90D
:10D7A0006846FFF7D1FFA04228D10023009A9C428F
:10D7B00019D9D05CF15C884213D10133F7E7124BE1
:10D7C000224631464FF6FF700093ADF80440FFF754
:10D7D000A3FB0822ADF8060069460A4800F0A0F94C
:10D7E00020B14FF0FF35284602B070BD22463146C9
:10D7F000064800F095F90028D2D0F2E7002CD4D0EA
:10D80000EFE700BF00B802084453515308B80208BC
:10D810000A4A0B4B11681B68013104BFC3F3036153
:10D82000116023F0706328B9126812061343044A8A
:10D83000136070474FF08062F8E700BF00300020AF
:10D84000000C0140014B1888704700BF8C6B002012
:10D8500002282DE9F8430746904600F2B480642A76
:10D8600000F2B180002908BF4FF47A7102286FD10D
:10D87000564B1B88012B40F2A680554AB2FBF3F2AF
:10D880008A42C0F0A08040F24A464B43B6FBF3F612
:10D89000504C721CB4FBF2F404EB5304B4FBF3F4ED
:10D8A000B4F5803F28BF4FF48034022C38BF0224E7
:10D8B000013C494B022FDFF82491494D1F77196233
:10D8C00083F824805AD1D9F8001012200131F6F7DC
:10D8D000BDFC0120FFF79CFF424B5A6942F0020257
:10D8E0005A61DA6942F0005242F02002DA619A6924
:10D8F00042F004029A613C4A136823F470231360D7
:10D90000A2F514421368034313606B6C002223F0EA
:10D9100001036B64354BEB64354B2B652B4B1B883C
:10D92000AB6443F2B0536B646B6C03436B64314B79
:10D930001A604FF480729E62DC62DA608122586164
:10D940001A6000202C4B1E802C4B1C80BDE8F883F5
:10D95000012802D12A4B994235D840F24A46B6FBFB
:10D96000F1F61C4C731CB4FBF3F404EB5104B4FB50
:10D97000F1F4013C012C38BF01249AE700206B6CC4
:10D980001C4A23F001036B64136823F00103136046
:10D990001C4B9860FFF73CFF31461020F6F756FC11
:10D9A00021461120F6F752FCC9F80040611C37B13E
:10D9B0006423C8F1640801FB08F1B1FBF3F1122004
:10D9C000F6F744FCBDE74FF0FF30BFE78C6B00205B
:10D9D00080841E0000A24A045C6B002004300020FA
:10D9E000000402400010024000080140087400409A
:10D9F0008E6B0020001400408A6B0020886B002092
:10DA000000127A000074004011F001030246F0B4E5
:10DA100030D140F2FD300C1F84422BD81846561CE2
:10DA2000355C145C44EA0524B4F5805F22DA0230E8
:10DA30008142F5D8124C4908207F022801BF114FBE
:10DA40007D6C25F001057D640F4D104F298016F87F
:10DA500013C012F81350013345EA0C25994227F8F8
:10DA6000025BF4D1022809D194F82420216AF0BC89
:10DA7000FFF7EEBE4FF0FF30F0BC70470020FBE731
:10DA80005C6B0020000402408C6B00208E6B002039
:10DA900010B5084CE368DB0709D4E068342300F0D4
:10DAA0001400003818BF0120E360404210BDFEF7AB
:10DAB000F7FBEFE700200240074B1A6842F0010233
:10DAC0001A601A689207FCD5044B054A5A6002F1A5
:10DAD00088325A60FFF7DCBF00100240002002408D
:10DAE0002301674570B50646FFF7E6FF0B4C054678
:10DAF000236943F0020323616661236943F0400315
:10DB00002361FFF7C5FF2369284323F00203236144
:10DB1000236943F08003236170BD00BF00200240F1
:10DB20002DE9F0410D46002416460746FFF7C4FFD5
:10DB3000134A05F10108136943F001031361B4426C
:10DB400002D260B14FF0FF300D4B1A6922F0010292
:10DB50001A611A6942F080021A61BDE8F081621C04
:10DB6000964294BF6FF0FF0218F904202B5D88BF26
:10DB7000120213439BB2E353FFF78AFF0234DEE73E
:10DB80000020024000232DE9F041164F07280546EA
:10DB90000E463B601FD9144B144C1C44144BE41A22
:10DBA0006FF30A04C4F1006303F5E033984212D81E
:10DBB000C30710D400EB0408A04505D800200D4B86
:10DBC0003D601E60BDE8F0812046FFF78BFF28B95D
:10DBD00004F50064F0E74FF0FF30F3E76FF0020068
:10DBE000F0E700BF946F00201B3900203C140108AF
:10DBF00000300020906F0020F8B5224B0C461B68C7
:10DC0000002B3BD040EA0201C90737D4834235D309
:10DC10001B1A934232D31C4B1C4D21461D441C4BF6
:10DC20001619ED1A01236FF30A0505441846A5EBF2
:10DC3000040CB14202D180B10020F8BD1CF8017083
:10DC400011F801EBFF2F14BF002303F00103774508
:10DC500014BF002000F00100EBE77BB1214628460D
:10DC6000FFF75EFF38B92D1BB442E5D02A5D14F8EA
:10DC7000013B9A42F8D06FF00200DEE76FF001003E
:10DC8000DBE700BF946F00203B1C01081C31002023
:10DC900000300020224BF0B51B68002B3CD08342A3
:10DCA0003AD1204B1B688B4236D11F4A1F4B204E66
:10DCB0001344204A9B1A6FF30A031C464FF0FF32AD
:10DCC00000EB030CA4451BD1D243914224D1D3E9EC
:10DCD000002319498A421FD318498A421CD8910748
:10DCE0001AD1DA0718D5164A934215D300F100600D
:10DCF00000F54040984294BF6FF001000020F0BD55
:10DD000014F8015B6A40082542F300073740013DE3
:10DD100087EA5202F8D1D5E76FF00100EFE700BFC4
:10DD2000946F0020906F00201B3900203C140108E4
:10DD30002083B8ED003000200030002000C000201B
:10DD400000C0000807B572B60A4B1A6842F001021B
:10DD50001A601A689207FCD5074A0848084B104415
:10DD6000084A0193801A084A019B11686FF30A0060
:10DD70009847FEE7001002403B1C01081C310020C0
:10DD80007130002000300020946F0020817821B194
:10DD9000437813B9007800F0A9BD0020704737B56B
:10DDA000457802460B468DB98468917800782CB985
:10DDB00000940C3200F052FE03B030BD002B14BFB3
:10DDC00022460022009500F0ADFDF5E70020F3E7C4
:10DDD00043781BB98178007800F096BD7047000049
:10DDE0000B4613B599B90124184601A9ADF80440B2
:10DDF00000F0EAFB40B94FF0E023D3F8F03DDA073A
:10DE000000D500BE02B010BD0D4B1C70FAE7012812
:10DE100001D80B7843B94FF0E023D3F8F03DDB078E
:10DE200000D500BE0020EDE7054C012B235401D0A6
:10DE30000120E7E700F0C8FB0028F9D1EBE700BFBD
:10DE4000986F00200378024613F0050009D113787B
:10DE500013F0050F06D11378012043F0040313706B
:10DE60007047002070470346027802F00502042A3A
:10DE700003BF1A78012002F0FB02002008BF1A70CD
:10DE80007047F0B5059CBDF818502544AC4223D22C
:10DE900026782644B5421FD36678052E09D1A67888
:10DEA00006F00F0701EB4707F609B855267834440A
:10DEB000ECE7042EFAD1E678002EF7D1A6789E4240
:10DEC00008D34FF0E023D3F8F03DDB0700D500BEC8
:10DED0000020F0BD9055E9E70120FAE710B50446AF
:10DEE00008460299BDF80C2049B152B1607004F1A6
:10DEF0000C0000F0F5F80120049BA36010BD08465B
:10DF0000FCE71046FAE738B5828AC38A92B29BB220
:10DF10009A42044601D0002038BD0029FBD08388F6
:10DF2000013B13EA0105F6D1FFF730FF0028F2D0DC
:10DF300029462046FFF733FF0028EDD14FF0E023BC
:10DF4000D3F8F03DDB07E6D500BEE4E738B5838AB9
:10DF5000C28A9BB292B2018A9342B6BFC2EB41021F
:10DF60009B1A9B189BB2994228BF1946044601B3DD
:10DF7000FFF70CFFE8B1A168E9B9A38AE28A9BB276
:10DF800092B2258A9342B6BFC2EB45029B1A9B18F8
:10DF90009BB29D4228BF1D46BDB129462046FFF7D2
:10DFA000FEFE80B94FF0E023D3F8F03DDB0700D54B
:10DFB00000BE002038BD0023E28804F10C0000F010
:10DFC00070F90546E8E72846F4E72046FFF700FF2A
:10DFD000EFE738B504461046F2B1002392B204F1DF
:10DFE0000C0000F073F9A38AE28A9BB292B2218AF4
:10DFF0009342B6BFC2EB41029B1A9B189BB28B4265
:10E0000028BF0B46A28805469A4201D98A4202D906
:10E010002046FFF79BFF284638BD38B5838AC18A62
:10E02000028A9BB289B28B42B6BFC1EB42015B1A36
:10E030005B189BB29A4294BF0022D21A838888BF91
:10E0400092B2934205462AD8FFF7A0FE38B3AB8AB6
:10E05000EA8A298A9BB292B29342B6BFC2EB4102CE
:10E060009B1A9B189BB2994294BF0021C91AAB8896
:10E0700088BF89B28B4216D85B4201EA0304EB8861
:10E0800028469C4228BF1C462146FFF788FE40B91F
:10E090004FF0E023D3F8F03DDB0700D500BE0020B1
:10E0A00038BD2046FCE72846FFF792FEF7E738B573
:10E0B00092B2044600230C3000F0F3F805462046E7
:10E0C000FFF7ABFF284638BD0A4492B291424FEAAF
:10E0D000400001D8824201DB121A92B2104670470A
:10E0E00010B50024B2F5004F9FBF448101608280CB
:10E0F000837196BF04812046012010BD0023438117
:10E100000381704783798B4218BF8171704713B5C3
:10E1100004466BB11B7893420CD93AB1002301A895
:10E12000019302F017F9BDF80430238002B010BD4E
:10E130000223F0E70888D21A24F8040B194492B29B
:10E14000E9E713B5044608465BB11B7893420AD948
:10E150002AB1238801A9ADF8043002F0FBF802B01F
:10E1600010BD0223F2E734F8041BD21A018092B2E8
:10E170001844EBE72DE9F04F85B0BDF838408588AD
:10E180001E1BB6B2A342BCBF06EB4506B6B2814623
:10E190000F46DDF83CA016B3B54206D22E469D428E
:10E1A00094BF5B1B5B199CB24481964228BF164604
:10E1B000A54218D9A5EB0408D9F800B0751B254471
:10E1C0001FFA88F8ADB25C44BAF1000F56D046454C
:10E1D0000CD85346324621463846FFF798FF304662
:10E1E00005B0BDE8F08F641BA4B2E1E79AF8009097
:10E1F0003846C9F1000208EA02025346214601925C
:10E20000FFF785FF019A09F1FF3C0CEA080C07EBC8
:10E2100042071CF0FF0C384625D0A9EB0C091FFA69
:10E2200089F9A94528BFA94603A8002301465FFA3A
:10E2300089F92244013312F8014BDBB29C4500F806
:10E24000014BF7D15B4601EB0C02CB449B4510D14F
:10E250001FFA89F4384653460CEB09022C1BFFF7D2
:10E2600056FFA5B2381D002DB9D053462A4659464F
:10E27000B3E713F8010B02F8010BE7E7464505D8B1
:10E2800032462146384602F065F8A8E74246214664
:10E29000384602F05FF82A46D9F8001007EB08006C
:10E2A000F1E773B5068945890446ADB2CDE900535F
:10E2B000B3B2FFF75FFF61890346024689B2A088C7
:10E2C000FFF702FF6081184602B070BD2DE9F04FE4
:10E2D00080460E46154687B0002A35D007898279D8
:10E2E00041898488BFB289B292BB8F42B6BFC1EB6D
:10E2F0004401791AC91989B2A14280F0AC80611A2F
:10E3000089B28D4228BF0D463A46A2423CD2A4EBC8
:10E31000020BD8F800102C1B14441FFA8BFBA4B27C
:10E3200001EB0209002B00F083805D452FD82A46BF
:10E3300049463046FFF705FF2A463946B8F804003B
:10E34000FFF7C2FEA8F80800284607B0BDE8F08F26
:10E35000A54207D30BB92D1B2E44002C7DD00F46B0
:10E360002546D1E78F424FEA4400B6BF421A7A1AD7
:10E37000D21992B22A448242C6DB621B204692B274
:10E38000FFF7A2FE0746BFE7121B92B2BDE793F864
:10E3900000A03046CAF100020BEA02024946CDE96C
:10E3A0000023FFF7CEFE0AF1FF32009B02EA0B0BBF
:10E3B0001BF0FF0B06EB4306019B36D0AAEB0B0AC2
:10E3C0001FFA8AFAA24528BFA2465FFA8AF20DF127
:10E3D000140A51463046CDE901225A440393FFF70F
:10E3E000B0FE51460022009B04369944039B013243
:10E3F00011F8010BD2B2934509F8010BF7D10022B5
:10E40000DA44DDF804C0D0B28445D8F8001007D84B
:10E41000029A6144A21A94B2002C8DD0224688E759
:10E420001AF8010B88540132EBE7D8F80010F3E733
:10E430005D4505D82A463146484601F08BFF7BE70B
:10E440005A463146484601F085FF2246D8F800007A
:10E4500006EB0B01F1E7002576E7254674E770B57A
:10E4600004894389A4B29BB285889C42B6BFC3EBA2
:10E470004502E21A121992B2954205D2A5420AD873
:10E480002A46631B9BB24381BAB90A800A814A605B
:10E490000020C86070BD2A462B199BB243819D4263
:10E4A0000ED90068A34200EB03064E600BD2002396
:10E4B0000A800B81ECE7641BA4B2A542FBD9EEE70E
:10E4C0005B1B9BB2EBE7521BEC1A13440C800B81D5
:10E4D000DFE70020704700002DE9F04106460024E8
:10E4E000194F1A4DDFF868803978E2B24B1CDBB265
:10E4F000934210D84C220021164801F09FFD1022B3
:10E50000FF21154801F09AFDBDE8F0411022FF21DE
:10E51000124801F093BD91420DD92421D8F8003062
:10E5200001FB02334BB94FF0E023D3F8F03DDB079A
:10E5300008D4BDE8F081F6D12B463046DB68984719
:10E540000134D1E700BEF4E760700020D413010865
:10E5500064700020AC700020C7700020D7700020CD
:10E560000346034A10780BB101F0A6BC01F0B1BC20
:10E570001C300020024A0B4611610121184700BFE0
:10E58000AC70002070477047002070470020704733
:10E5900000207047704770477047704770470346C8
:10E5A0000020187070470000024B187E003818BF1A
:10E5B00001207047AC700020024B987D003818BFD6
:10E5C00001207047AC7000202DE9F047DFF8A480EF
:10E5D000054698F800300E46FF2B46D149B94FF05A
:10E5E000E023D3F8F03DDB0700D500BE0020BDE8F6
:10E5F000F08700244C2200211F4801F01FFD1F4B13
:10E600001F48204F1C70FFF779FD1F4B1F4A3846EB
:10E610001A60FFF7C4FF3B78DFF87490FF2BC9F84E
:10E620000000DCD04FF0240A1A4A0DE088421ED9BF
:10E63000D9F800300AFB0133002BD0D05B680134DD
:10E64000002BCCD09847134A3878E1B2431CDBB298
:10E650008B42EBD83146284688F8005001F0FCF890
:10E660000028BCD0284601F027FC0120BFE7B6D126
:10E670001346E3E71C300020AC700020A870002097
:10E6800010300020607000209C6F002008300020B7
:10E6900064700020D41301082DE9F0434378044648
:10E6A000023B0D4685B0052B0DD8DFE813F00600C0
:10E6B000A60024002A00BD00C3000022794B1A7571
:10E6C0001A765A759A75784B1E6815B928463368BC
:10E6D000984700232146B28806F10800FFF7F6FDAF
:10E6E000074615B9012033689847002F72D02A4693
:10E6F0006178207895E06B4B1A7D002A71D0012259
:10E70000E0E7684B1A7D002A6BD00022DAE79142DD
:10E710006AD92421D9F8003001FB0233002B65D1DE
:10E72000013798F80010FAB24B1CDBB29342EED8D6
:10E730005C4FBB7D4BB30023BB75CDF80630CDF8E5
:10E740000A30ADF80E3023788DF8043005238DF8AB
:10E750000530554B1E6815B9284633689847002385
:10E76000B28801A906F10800FFF7B0FD804615B98F
:10E77000012033689847B8F1000F45D14FF0E023EE
:10E78000D3F8F03DD90700D500BEBB7EDA0728D507
:10E790000023CDF80630CDF80A30ADF80E302378DE
:10E7A0008DF8043003238DF80530636802933E4BE7
:10E7B0001C6815B92846236898470023A28801A938
:10E7C00004F10800FFF782FD064615B90120236811
:10E7D00098470EBB4FF0E023D3F8F03DDB0700D5A0
:10E7E00000BE05B0BDE8F0839AD133461B6A002B0A
:10E7F00096D061682078984792E70027DFF8AC80D0
:10E800002B4EDFF8B0908CE72A469DF805109DF856
:10E810000400FFF7B7FEB8E72A469DF805109DF8FB
:10E820000400FFF7AFFEDCE7234A13780133DBB2C5
:10E83000137048E7017911F00F033FF444AF194E0C
:10E840004FEA430C06EB430303EBD11393F82B2061
:10E85000164BC8091B789A4220D22427154B1B68F7
:10E8600007FB0233002B3FF42EAFDF69002F3FF48C
:10E870002AAF6644064496F83B3003F0FA0386F864
:10E880003B30A36862792078B8470028A9D196F870
:10E890003B3043F0050386F83B3014E77FF413AFB9
:10E8A000034BE2E7AC7000209C6F002060700020FA
:10E8B000D413010864700020A87000208A78120721
:10E8C00008D54FF0E023D3F8F03DDB0700D500BEBC
:10E8D000002070478B88C3F30A03002BF1D0024B52
:10E8E000187801F0BDB900BF1C300020CB0901F041
:10E8F0000F0204483B3303EB420300211844FFF7A7
:10E90000A1BA00BFAC700020CB0901F00F0204488F
:10E910003B3303EB420300211844FFF7A4BA00BFC6
:10E92000AC70002037B5154C01F00F0504EB450421
:10E9300004EBD11494F83B00C00709D54FF0E02355
:10E94000D3F8F03DDB0700D500BE002003B030BD9A
:10E9500094F83B0040F0010084F83B009DF818005B
:10E9600000900748007801F0EFF90028EED194F804
:10E970003B3003F0FA0384F83B30DFE7AC70002053
:10E980001C300020084B07B5DA885AB11978C94302
:10E9900001F0800100231A460093FFF7C3FF03B084
:10E9A0005DF804FB8021F5E7AC700020164B37B50D
:10E9B0009989DA8905468C1AA4B293F90000402C93
:10E9C00028BF402400280BDA91420FD099680F48E5
:10E9D000814203D0B1B1224601F0BCFC802103E0AA
:10E9E00091424FF000010BD0084A01E08021002243
:10E9F0000023284600932346FFF794FF03B030BD61
:10EA00000A46F5E70846F9E7AC7000206870002078
:10EA100037B5114D0446E988AA608B4228BF0B46E2
:10EA2000AB8191B14BB142B94FF0E023D3F8F03D47
:10EA3000DB0700D500BE002005E02046FFF7B6FF4B
:10EA40000028F1D0012003B030BD0B460A460091EA
:10EA50008021FFF767FFF3E7AC70002037B5154C56
:10EA600001F00F0504EB450404EBD11494F83B00CE
:10EA7000C00709D54FF0E023D3F8F03DDB0700D500
:10EA800000BE002003B030BD94F83B0040F0010010
:10EA900084F83B009DF8180000900748007801F0CA
:10EAA00073F90028EED194F83B3003F0FA0384F8B0
:10EAB0003B30DFE7AC7000201C30002010B50C4666
:10EAC000084B187801F076F9074B04F00F0203EBBE
:10EAD000420303EBD41191F83B3043F0030381F878
:10EAE0003B3010BD1C300020AC70002010B50C462F
:10EAF000084B187801F09CF9074B04F00F0203EB68
:10EB0000420303EBD41191F83B3003F0FC0381F88E
:10EB10003B3010BD1C300020AC700020054B01F0D4
:10EB20000F0203EB420303EBD11191F83B00C0F35A
:10EB300040007047AC7000202DE9F04FA94B89B020
:10EB40001B78FF2B00F0C5821023A74E0293A74B22
:10EB500000201C68236898470023A28805A904F1B7
:10EB60000800FFF79EFB0546236801209847002D0B
:10EB700000F0AF829DF81530013B072B00F2408278
:10EB8000DFE813F008001400D702B402BE021B0035
:10EB90002202D0029DF81400FFF79EFC9DF8183069
:10EBA0007376029B013B0293D1D192E29DF814004F
:10EBB000FFF792FCFFF7EFFCF3E78D4A1378002B89
:10EBC000EFD01378013BDBB21370127802F0FF0331
:10EBD000002AE6D10127844C08AA12E9030084E840
:10EBE000030022782775C4E9023384F83B3023619F
:10EBF00084F83C3002F06003602B9DF8145007D17C
:10EC00004FF0E023D3F8F03DD80728D500BE26E02A
:10EC1000402B09D1774B2246394628462361FFF71E
:10EC200058FC0028BDD11AE002F01F02012A00F0B2
:10EC30005781022A00F07F81002AE1D1202B20D1C8
:10EC400023790F2B0BD82344DA7E6B4B1B789A4227
:10EC500010D22421694B1B6801FB023363B90021E8
:10EC60009DF8140001F0A6F880219DF8140001F031
:10EC7000A1F896E7F3D1624B59692846FFF77AFC71
:10EC8000CFE7002BBCD16378092BB9D801A252F889
:10EC900023F000BFD7EE0008C7EE000801EC000823
:10ECA000B5EE000801EC0008BDEC00080FEE00080E
:10ECB00001EC0008CBEC0008E1EC00082846A17844
:10ECC00001F058F8012363756BE7237E8DF812304D
:10ECD0000123284644490DF11202FFF799FE60E72F
:10ECE000A778237E9F4212D06BB10021284600F006
:10ECF000CDFD284601F0F6F894F819802846FFF774
:10ED0000EBFB84F81980277637B9FFF744FC2846D7
:10ED10003549FFF737FE44E7781EC0B2FEF78CF89E
:10ED200010B14378022B08D04FF0E023D3F8F03D28
:10ED3000DB0755D40023237662E7C379E27D9B117C
:10ED400063F30002E275438800F10908C7184745DC
:10ED50005AD998F8003043449F4255D398F801207F
:10ED60000B2A01D19846F2E7042ADDD10023A7EB54
:10ED7000080B1FFA8BFB204A5FFA83FA11784A1CB2
:10ED8000D2B25245D0D9514525D924211B4A126807
:10ED900001FB0A22002AC7D0D2F8109041465A46F9
:10EDA00028460393C84708288146039B16D9834504
:10EDB00014D31023134ACDE90080D1185046FFF731
:10EDC00060F80028B0D00C4BC8441B780133DBB28C
:10EDD0005345BCD8A8E7A7D1094ADDE70133CAE704
:10EDE00000BEA7E71C300020AC7000209C6F002004
:10EDF000A8700020D3E40008607000206470002038
:10EE0000D4130108C7700020FFF7C4FB7FE76388B5
:10EE10001A0AD8B2531E0E2B3FF621AF01A151F8AA
:10EE200023F000BF61EE000883EE00089DEE0008AD
:10EE30005FEC00085FEC0008AFEE000883EE00080E
:10EE40005FEC00085FEC00085FEC00085FEC000876
:10EE50005FEC00085FEC00085FEC000879EE00084A
:10EE6000FDF7E6FF024600283FF4CAAE122328460B
:10EE7000A749FFF7CDFDD4E6FFF786FB024640B970
:10EE8000EDE6022A07D1FDF7D7FF024600283FF43E
:10EE9000B7AE5388EBE7FFF77BFBEFE7A188FDF701
:10EEA000CFFF024600283FF4DAAE0378DFE7FFF732
:10EEB0006DFBF6E76388012B7FF4D1AEE37D43F071
:10EEC0000203E37523E76388012B7FF4C8AEE37D7B
:10EED00023F00203F5E7E37DADF812300223F8E6F4
:10EEE00023790F2B3FF6BBAE2344DA7E894B1B7888
:10EEF0009A421CD22421884B1B6801FB0233002B51
:10EF00003FF4ADAE28465969FFF734FB00287FF483
:10EF100048AE237813F060037FF4A1AE62782361DA
:10EF20000A2A3FF4D3AE0B2A3FF4F1AE97E67FF402
:10EF300096AE7A4BE6E721790F073FF561AE01F017
:10EF40000F02744804EB420202EBD11292F82B201C
:10EF50000078824213D270480768242000FB0277B1
:10EF6000A3B9637803F0FD02012A14D0002B7FF4CB
:10EF700047AE2846FFF7D2FDADF81200AEE700F02D
:10EF8000E080002B7FF46BAE0027EAE7002F3FF410
:10EF900066AE796971E6628822B9012B284610D1E4
:10EFA000FFF7A4FD002F3FF4FCAD28467969FFF779
:10EFB000E1FA0023236194F83C30DC073FF5F1AD22
:10EFC000A5E6FFF77BFDEDE79DF8181001F00F00B7
:10EFD00006EB400303EBD11393F83B2002F0FA0257
:10EFE00083F83B20002861D1F3889DF81440079FE7
:10EFF0007BB13578ED4305F08005A94218D157B1B2
:10F000004FF0E023D3F8F03DDB077FF5CAAD00BE3B
:10F01000C7E58025F1E720463D4900F011FE336940
:10F02000002B3FF4BEAD03212046394A9847B8E58E
:10F0300096F90030002B0FDBB06800283FF4B1AD2B
:10F04000B389F28936499B1A9F4228BF1F468842DE
:10F0500002D03A4601F07EF9B268F3893A443B4463
:10F06000B260F2889BB29A42F38101D03F2F19D847
:10F07000336953B9002329461A4620460093FFF707
:10F0800051FC00287FF48DADBAE702212046204ACA
:10F09000984701460028EDD1204600F08BFE8021E4
:10F0A0002046E4E52046FFF781FCEAE793F82B20B1
:10F0B000184B1B789A420FD22420174B1B6800FB79
:10F0C00002335BB94FF0E023D3F8F03DD90700D508
:10F0D00000BE09B0BDE8F08FF4D1104B9C699DF8DB
:10F0E0001920079B9DF81400A0475AE5337D002B9B
:10F0F0003FF457ADF07DC0F34000FFF74DFA50E507
:10F10000337D002B3FF44DADFFF747FA49E500BFD3
:10F11000AC7000206070002064700020D4130108DF
:10F1200068700020069B002B3FF43BAD0798984782
:10F1300037E5B37EDA077FF534AD0698FFF723FA9B
:10F140002FE5024F002B7FF424AF0AE7D413010808
:10F1500070477047704770477047704770470000AE
:10F1600010B508B1002010BDFFF71EFA0446FFF7E6
:10F1700023FA002CF6D00028F4D1024BD87800F006
:10F180000100F0E7F870002080B909490B8F4A8F21
:10F19000888E92B29BB29342B6BFC2EB40029B1ADA
:10F1A0009B189BB2984228BF1846704700207047B2
:10F1B000F870002010B90248FEF779BF00207047B0
:10F1C0001C71002010B90248FEF703BF00207047F1
:10F1D0000471002010B90248FEF7B8BE0020704745
:10F1E0000471002030B541F23C2285B00021144862
:10F1F00000F024FF4FF4E1331148002443604FF640
:10F20000087343814FF40073CDE901340D4B05467B
:10F2100022462146009324302346FEF75FFE4FF43A
:10F220008053019305F13C030093284601232146B6
:10F230001A4602940C30FEF751FE05B030BD00BFF7
:10F24000F8700020348100200120704738B5064C4A
:10F2500000252046012140F8185BFEF753FF84F893
:10F260002650A57338BD00BFF87000202DE9F04787
:10F270004B798146022B0F4611D18B79022B0ED18F
:10F280003C4E96F82630002B6BD0B37B002B68D019
:10F290004FF0E023D3F8F03DDB0700D500BE00209F
:10F2A000BDE8F0871C464445627805D223782344A4
:10F2B000984501D3242AF5D0052A09D1214648468C
:10F2C000FFF7FCFA0028E3D0A378B37023781C443E
:10F2D0006378042B02D163790A2B3ED025462AE0BD
:10F2E000434528D2A84526D36B78052BD0D1EB789F
:10F2F00003F00303022BCBD129464846FFF7DEFA81
:10F300000028C5D0AA78AB88D109C3F30A0315D069
:10F3100033824023184886F80C90B2737382FEF74C
:10F32000EDFE2B460AF1010A21791D785FFA8AF277
:10F3300091421D44D4D8E81B80B2B1E70F4886F84B
:10F34000249086F8262033857385FEF7D7FE0C4877
:10F35000FEF763FE0028E4D19AE723464FF0000A47
:10F36000E2E7BB7886F8009073703C7807EB020800
:10F370003C4498E7F87000201071002028710020AC
:10F380001C7100200B461146127870B502F0600225
:10F39000202A04D1234D8A886C78944233D00020EF
:10F3A00006E0012B05D107231F4AFFF731FB01209F
:10F3B00070BD032BFBD100201B49FFF7CEFEF6E703
:10F3C000012BF4D1EFE7012B02D1FFF7DBFAEEE7D7
:10F3D000032BECD14C88154804F0010686F001019E
:10F3E000EC70FEF78FFE31460020C4F34002FFF7B9
:10F3F000B3FEDCE7012BE8D0032BD8D100204988ED
:10F40000FFF7ACFED3E74A78203A032AC7D801A415
:10F4100054F822F0A3F30008C1F30008C7F3000872
:10F42000F5F30008F8700020FC7000201071002037
:10F43000F0B53B4C1E4694F826300D468B4285B005
:10F440001AD0A37B8B4204D0A3788B425DD10029D4
:10F450005BD0A37BAB420AD10020FFF77BFE314893
:10F46000FEF774FD18B931462E48FEF74CFDA3781F
:10F47000AB4246D0012050E0E16A29B10023B2B28C
:10F4800004F13000FEF722FFE37AFF2B1CD069461F
:10F490002548FEF7E4FFBDF8083013B3039A013B9B
:10F4A0001A448AB10020BDF80030019F013BE17A87
:10F4B000DDF80CC03B44B04206D092F800E08E4527
:10F4C00016D10020FFF745FE228F638F92B29BB2C8
:10F4D0009A4202D00020FFF73BFE1448FEF79DFD44
:10F4E000B7E7BDF80030002BEED0019A013BD7E71B
:10F4F000944504D09742E7D0013A0130DBE71A4641
:10F50000FBE70020FFF727FEB4E74FF0E023D3F836
:10F51000F03DDB0700D500BE002005B0F0BD00BF08
:10F52000F870002004710020287100201C71002058
:10F53000002807DB01234109034A00F01F00834034
:10F5400042F82130704700BF00E100E000280CDBEA
:10F5500001220649430900F01F008240203341F890
:10F560002320BFF34F8FBFF36F8F704700E100E0A0
:10F570001E4AF0B500231646C40900F00F0504F139
:10F58000020C84F0010E12F80C70D8B237B1577823
:10F590008F421DD11778AF421AD1F0BD012904D195
:10F5A00006EB83077744BF7897B91778FF2F01D010
:10F5B000AF420DD15778FF2F08D1012206F8235012
:10F5C00006EB8303597023449A70E6E78F42F4D028
:10F5D0000133082B02F10402D5D14FF0E023D3F818
:10F5E000F03DDB0700D500BE0020D6E737830020C2
:10F5F0002DE9F3478946048941898389641AA4B2B5
:10F600009C4228BF1C46374B054633F82980364AB2
:10F610001FFA88F848F4004708F4C068B8F5806F0E
:10F6200018BF4FF0000A47F0800708BFC7F3801AE1
:10F630000AEB490332F83300D5F804C080B2400029
:10F6400000F180404FEA490600F5C040BCF1000FD0
:10F6500040D002238DF8003000230146019322465A
:10F660006B466046FEF71DFE6B89B8F5806F23443C
:10F670006B8106EB0A034FEAC30303F1804303F5F2
:10F68000C0439A88C4F3090402F47C4242EA0402AB
:10F690009A8008BF01234FF0130008BFEB73FFF7F8
:10F6A00055FF87F030071420FFF750FF27F4E0479D
:10F6B0000C4B27F0400723F82970BFF34F8FBFF39F
:10F6C0006F8F1320FFF734FF142002B0BDE8F0471E
:10F6D000FFF72EBF6346D5F800C022466144FEF70F
:10F6E00016FDC1E7005C00400060004007B50DF169
:10F6F00007020DF1060100F03FFC0346094A10889D
:10F7000003449BB2B3F5007F138008D94FF0E02388
:10F71000D3F8F03DDB0700D500BE4FF6FF7003B015
:10F720005DF804FB3483002070B5244A01EB4003EC
:10F7300002EB031301299D7B4FEA401006D11030E4
:10F740002946BDE870401044FFF752BF10440689B7
:10F7500082891B4B964228BF164633F82530324625
:10F760009BB223F4804424F0700403F4C06344F497
:10F770000044B3F5806F44F0800404D10021284692
:10F7800000F00CFC32460121284600F007FC132053
:10F79000FFF7DCFE1420FFF7D9FE094B84F4405438
:10F7A00023F82540BFF34F8FBFF36F8F1320FFF770
:10F7B000BFFEBDE870401420FFF7BABE588300209A
:10F7C000005C004070B50025FF222E461D4BA3F8BB
:10F7D0004C501D4B0135082D1A705A709E70DE700A
:10F7E00003F10403F6D100214024184B08461C8085
:10F7F000FFF7BEFE8020FFF7BBFE154B20469C8125
:10F800009E739C839E77FFF771FF86B22046FFF7B9
:10F810006DFF104B80B21E810A4E188034882A4634
:10F8200001210020A4B200F0B9FB24F40F4323F01F
:10F830008F0383F4085383F0200333808023A6F8DA
:10F840004C3070BD005C00403783002034830020C2
:10F85000588300200060004010B5044600F064FBAF
:10F860000023094AA2F84030A2F85030B2F84030E4
:10F870009BB243F45D43A2F84030FFF7A3FF20465C
:10F88000FEF78CFE012010BD005C0040074AB2F874
:10F89000403029B19BB243F40073A2F84030704766
:10F8A00023F400731B041B0CF7E700BF005C00404F
:10F8B0002DE9F04F944B89B0B3F8442091051FFA1D
:10F8C00082F814D5B3F84020920510D54FF6FF52B8
:10F8D000A3F844204FF44072B3F848300121C3F339
:10F8E0000A0305A8ADF814200693FEF7D5FE18F418
:10F8F000806F854A13D04FF6FF33A2F84430FFF7EC
:10F9000061FF4FF48073ADF814300023012105A886
:10F910008DF81830FEF7C0FE09B0BDE8F08F18F47E
:10F92000805F1BD0B2F84030012123F004031B0498
:10F930001B0CA2F84030B2F8403005A823F00803B1
:10F940001B041B0CA2F840304EF6FF73A2F84430A3
:10F950004FF4A063ADF81430FEF79EFE18F4006F6C
:10F960001AD0694B0121B3F8402005A892B242F0A9
:10F970000802A3F84020B3F8402092B242F00402FB
:10F98000A3F840204FF2FF72A3F844204FF48063A5
:10F99000ADF81430FEF780FE18F4807F16D05B4976
:10F9A0000A78012A0BD15848B0F8403023F01003F0
:10F9B0001B041B0CA0F84030013A0A7001E0002A39
:10F9C000FAD14FF6FF62504BA3F84420DFF8409184
:10F9D0004D4BB3F844301A040FD418F4804F9BD029
:10F9E0004FF0E023D3F8F03DDB0700D500BE4BF627
:10F9F000FF72454BA3F844208EE7434BB3F84450C5
:10FA000005F00F05AC0004F1804404F5B8442388E8
:10FA10009AB21F0400922FD516057BD52B0103F156
:10FA2000804303F5C0439E891889C6F3090680B256
:10FA3000400003AF00F1804000233246394600F514
:10FA4000C040FEF77EFB2388082E23F070034FEAA8
:10FA500003534FEA135343F08003238046D197E8C2
:10FA600003004FF4C063ADF8143008AB03E90300A2
:10FA7000012105A8FEF710FE009B1906A8D52388D2
:10FA8000234823F4E14323F070031B041B0C43F4CD
:10FA900000432380228802F00F0193B202F4C06277
:10FAA000B2F5806F4FEA411214D18418E67F002E20
:10FAB0008ED00026C3F3801383F0010303EB4503CC
:10FAC000DB0003F1804303F5C043E6779C8804F430
:10FAD0007C449C8083185C8B1B8BA34200F09C8031
:10FAE000103229461044FFF783FD71E74FF0E02301
:10FAF000D3F8F03DD80700D500BE08220121002030
:10FB000000F04CFAB8E700BF005C004036830020EC
:10FB1000588300202388494A23F070031B051B0DDE
:10FB200043F0800323802688B3B206F00F0A06F460
:10FB3000C066B6F5806F019312BF012383F4804342
:10FB4000C3F3803303EB450302EBC301B1F804B008
:10FB500032F8330009EB4A1380B24000D3F804C0F6
:10FB600000F18040CBF3090B00F5C0404FEA4A1783
:10FB7000BCF1000F2CD002238DF814300023014675
:10FB800006935A46604605ABFEF7A0FB09EB07015A
:10FB90004B898A895B449BB293454B8102D3098987
:10FBA0008B421FD30121284600F0F8F900264FF4BC
:10FBB000E0624F447B89012105A8ADF814208DF83F
:10FBC00018A007938DF81960FEF766FDBE6053E735
:10FBD000B3F80AE059F8071063465A467144FEF735
:10FBE000B0FAD3E7B6F5806F08D0C91A89B28A4255
:10FBF00028BF0A462846012100F0D0F9019B23F4D2
:10FC0000804323F0700343F4004343F0800383F404
:10FC100040539BB223802FE74FF4E0620793002309
:10FC200061F07F018DF8181005A80121ADF81420AE
:10FC30008DF81930FEF730FDCAE600BF00600040C5
:10FC40000B785B0609D14B78052B06D14B88034A0C
:10FC500063F07F03DBB2A2F84C307047005C0040D9
:10FC60002DE9F8430F468D78B1F80490C9782846FD
:10FC700001F00301FFF77CFC304B05F00F0833F86F
:10FC8000203048F0800223F4786323F00F035B04F4
:10FC90005B0C43EA0204FB78064603F00303022BE5
:10FCA00049D0032B3DD144F40644C9F30A09484620
:10FCB000FFF71CFDED09224A85F0010303EB460323
:10FCC00080B222F833001F4B05EB4808012D03EBEF
:10FCD000081314BF0C220422A3F80C909E734FF05B
:10FCE000020303FA02F384EA03044FF013000CBF8B
:10FCF00024F4E04424F07004FFF728FC1420FFF7FC
:10FD000025FC0E4BA4B223F82640BFF34F8FBFF360
:10FD10006F8F1320FFF70CFC1420FFF709FC012064
:10FD200007E04FF0E023D3F8F03DDB0700D500BE3D
:10FD30000020BDE8F88344F40044B6E7005C0040CE
:10FD4000006000405883002001F00F0070B54400AF
:10FD5000074D04EBD1142601AA51002205EB04142F
:10FD6000C909626023816281FFF7DEFC012070BD5A
:10FD700058830020002307B51A4680210093FFF71F
:10FD8000E3FF03B05DF804FBF8B5002501F00F00B8
:10FD9000074E440004EBD1142701C90906EB0414F3
:10FDA000F551626023816581FFF7BEFC0120F8BD3B
:10FDB0005883002038B501F00F031B4A5B0003EBAA
:10FDC000D11302EB031348F280029D7B174BC90944
:10FDD00033F825304FF001049BB215BF23F4E04304
:10FDE00023F4804323F0400323F0700315BF134333
:10FDF000134304220C22132094405C40FFF7A6FB1F
:10FE00001420FFF7A3FB094BA4B223F82540BFF34E
:10FE10004F8FBFF36F8F1320FFF78AFBBDE8384089
:10FE20001420FFF785BB00BF58830020005C004012
:10FE300038B501F00F031E4A5B0003EBD113C9096B
:10FE400002EB031319BF402448F6BF724BF68F72C2
:10FE50004FF480449D7B174B144333F825309BB2FD
:10FE600043F4004343F080031C4004F4C063B3F543
:10FE7000806F06D0012914BF0C2204220223934074
:10FE80005C401320FFF762FB1420FFF75FFB094B78
:10FE9000A4B223F82540BFF34F8FBFF36F8F132019
:10FEA000FFF746FBBDE838401420FFF741BB00BF19
:10FEB00058830020005C004008B5BFF34F8FBFF3AC
:10FEC0006F8F1320FFF734FBBDE808401420FFF7C5
:10FED0002FBB08B51320FFF739FBBDE808401420FD
:10FEE000FFF734BB38B50446FFF7F3FF01220021CA
:10FEF000FF200A4B0A4D25F822100132082A1871FA
:10FF000058719971D97103F10403F4D12046FFF7B8
:10FF1000D3FFC022034B1A8038BD00BF37830020B7
:10FF2000005C0040348300200323124A82B0A2F810
:10FF3000403000230093009BC72B12D9B2F8403009
:10FF400023F002031B041B0CA2F840300023019392
:10FF5000019BC72B09D90022064BA3F8442002B00D
:10FF6000704700BF009B0133E4E700BF019B0133F2
:10FF7000EDE700BF005C00403E2810B587BF20239E
:10FF80000124002402238BBF1F300130C0F347102F
:10FF9000C0F347000C701070584310BD37B50546CC
:10FFA0000C4610460DF106010DF10702FFF7E4FFC4
:10FFB0009DF806209DF807309B1AD20342EA83225F
:10FFC00092B2002A08BF4FF4004204EB4503DB0065
:10FFD00003F1804303F5C0439A8003B030BD0000B5
:10FFE00020F0030110F00300C0F1000051F8043BC1
:10FFF00000F1040C4FEACC0C6FF000021CBF22FA97
:020000040801F1
:100000000CF213434FF0010C4CEA0C2C4CEA0C4C54
:10001000A3EB0C0222EA030212EACC1204BF51F84D
:10002000043B0430F4D0C2F1000102EA0102B2FA4A
:1000300082F2C2F11F0200EBD200704770B5860752
:1000400047D0541E002A3ED00346CAB201E0013C0C
:1000500039D303F8012B9D07F9D1032C2CD9CDB24C
:1000600005EB05250F2C1A4605EB054534D9A4F1FF
:10007000100C2CF00F0603F1100EB6444FEA1C1CB6
:10008000C2E90055C2E9025510327245F8D10CF1AF
:10009000010214F00C0F03EB021204F00F0C13D04A
:1000A000ACF1040323F003030433134442F8045B6C
:1000B0009342FBD10CF003042CB1C9B21C4403F8E9
:1000C000011BA342FBD170BD64461346002CF4D142
:1000D000F9E703461446C0E7A446E1E780EA010CCD
:1000E0001CF0030F37D110F0030C20F0030021F0B7
:1000F000030150F8042B08BF51F8043B0ED08CF0DC
:10010000030C6FF07F434FEACC0C23FA0CFC51F840
:10011000043B42EA0C0243EA0C0300BFA2F1013C9B
:100120009A4201BF2CEA020C1CF0803F50F8042BCD
:1001300051F8043BF2D04FEA02604FEA1222012844
:1001400028BFB0EB036F08BF1B0AF4D003F0FF0316
:10015000000EC01A704710F0030F0AD010F8012BE0
:1001600011F8013B012A28BF9A42F4D0A2EB030008
:1001700070474DF8045D50F8042B01F0030521F0A1
:10018000030151F8043B022D26D04DD822F07F45C3
:10019000B5EB132FA2F1013C2CEA020C0DD11CF09F
:1001A000803C08BF51F8043B0AD185EA0205B5EB53
:1001B000036F0CD150F8042BE8E74FEA13235BE000
:1001C0003CF07F4C54D10B784FEA126554E04FEA73
:1001D000126503F0FF034FE04FEA0245A2F1013C34
:1001E0004FEA15452CEA020CB5EB134F18D11CF061
:1001F000803C08BF51F8043B07D185EA0205B5EB06
:10020000034F09D150F8042BE6E75FEA0C4C2FD1DD
:100210000B884FEA12452FE04FEA03434FEA12459D
:100220004FEA134328E000BF02F0FF05B5EB136F60
:10023000A2F1013C2CEA020C0DD11CF0803C08BF5D
:1002400051F8043B0AD185EA0205B5EB032F0AD128
:1002500050F8042BE8E74FEA13630DE012F0FF0FAC
:1002600006D051F8043B4FEA122523F07F4303E008
:100270004FF0000020BC704705F0FF0203F0FF00C4
:10028000012828BF904204BF2D0A1B0AF4D0A2EB1C
:10029000000020BC704700BF80EA0102844612F0D3
:1002A000030F4FD111F0030F32D14DF8044D11F06F
:1002B000040F51F8043B0BD0A3F101329A4312F022
:1002C000803F04BF4CF8043B51F8043B16D100BFFB
:1002D00051F8044BA3F101329A4312F0803FA4F18C
:1002E00001320BD14CF8043BA24312F0803F04BF13
:1002F00051F8043B4CF8044BEAD023460CF8013B80
:1003000013F0FF0F4FEA3323F8D15DF8044B704729
:1003100011F0010F06D011F8012B0CF8012B002A67
:1003200008BF704711F0020FBFD031F8022B12F056
:10033000FF0F16BF2CF8022B8CF8002012F47F4F11
:10034000B3D1704711F8012B0CF8012B002AF9D119
:10035000704700BF844641EA000313F0030349D10C
:10036000403A23D30B6803604B6843608B6883601B
:10037000CB68C3600B6903614B6943618B6983611F
:10038000CB69C3610B6A03624B6A43628B6A836207
:10039000CB6AC3620B6B03634B6B43638B6B8363EF
:1003A000CB6BC36340304031403ADBD230320BD3A9
:1003B0000B6803604B6843608B688360CB68C360E5
:1003C00010301031103AF3D20C3205D351F8043BFF
:1003D00040F8043B043AF9D2043208D0D2071CBFDB
:1003E00011F8013B00F8013B01D30B880380604604
:1003F000704700BF082A13D38B07B1D010F0030356
:10040000AED0C3F10403D21ADB071CBF11F8013BC5
:1004100000F8013BA4D331F8023B20F8023B9FE7F0
:10042000043AD9D3013A11F8013B00F8013BF9D263
:100430000B7803704B7843708B78837060467047FD
:1004400030B51B4C002924689BB02BDB4FF0000516
:10045000009004904FF402701995ADF80C004FF61F
:10046000FF7511D001390291059120466946ADF81A
:100470000E5000F03FF9421C01DA8B23236000226A
:10048000009B1A701BB030BD029105912046694651
:10049000ADF80E5000F02EF9431C01DA8B232360D7
:1004A0001BB030BD8B234FF0FF302360F8E700BF57
:1004B0002030002030B51446002C05469BB02CDBC4
:1004C0001A4600914FF4027304914FF000014FF669
:1004D000FF7C1991ADF80C3011D0013C69461E9B90
:1004E00002940594ADF80EC000F004F9421C01DA44
:1004F0008B232B600022009B1A701BB030BD1E9B0B
:10050000694602940594ADF80EC000F0F3F8431C60
:1005100001DA8B232B601BB030BD8B234FF0FF30F3
:100520002B60F8E72DE9F0471D468F680C46AF4277
:1005300016460B6836D8B1F90CC01CF4906F0ED17A
:100540003D46184631462A4600F046FD0020A36885
:10055000DF1B2368A7602B442360BDE8F0874A694E
:10056000096902EB42025F1A02EBD2726B1C521055
:100570003B44934292BF914699461A461CF4806FC1
:10058000804611D0114600F03FFA824600B33A4649
:100590002169FFF7DFFEA38923F4906343F0800312
:1005A000A38105E02F46CCE700F00CFB824658B152
:1005B0000AEB0703A9EB0707A760C4F810A02F46B2
:1005C000C4F814902360BCE74046216900F09CFA0F
:1005D0000C22A3894FF0FF3043F04003C8F80020FD
:1005E000A381BAE72DE9F04F936883B0924617686C
:1005F0000190002B76D04FF0000B0C465D468B68C7
:100600000A6848E0B4F90CC01CF4906F2FD0D4E90C
:100610000403A2EB000803EB430202EBD27208F1E1
:10062000010152102944914292BF914689460A46DF
:100630001CF4806F39D01146019800F0E5F90646A8
:1006400000283DD042462169FFF784FEA28922F4AA
:10065000906242F08002A28106EB0800A9EB08023A
:100660002661A8462E46A2602060C4F81490324647
:10067000594600F0B1FCDAF80810A3682268A3EB31
:1006800008033244491BA3602260CAF8081049B32A
:10069000D7E900B5083798461046002DF8D09D429E
:1006A0001E46AFD2A8462E46E1E70146019800F06B
:1006B00089FA06460028CFD10198216900F024FA72
:1006C0000C21A389019D43F0400329600022A381EE
:1006D0004FF0FF300023CAF80820CAF8043003B0F6
:1006E000BDE8F08F00200023CAF8043003B0BDE855
:1006F000F08F00BF2DE9F04F1C468B8989461D06FF
:10070000824693469DB003D50B69002B00F0EE8026
:10071000002343F2200209939BF8003001277C4E0E
:100720000394ADF82920002B71D05D4603E015F845
:10073000013F002B73D0252BF9D1B5EB0B0471D100
:100740002A78002A63D000234FF0FF320135CDE92B
:100750000523049307938DF853301A9306E025463A
:10076000049B801B07FA00F0034304932C460522E8
:1007700014F8011B304600F0D5F8A3460028EED14E
:10078000049BD90644BF20228DF853201A0748BF86
:100790002B22297848BF8DF853202A294FD1039A5C
:1007A00011680432002903927BDB079169782E29B6
:1007B0005BD0584C0322204600F0B4F838B14022F8
:1007C000049B001B824013430BF1010B04931BF8A5
:1007D000011B062250488DF8281000F0A3F80028CD
:1007E00065D04E4B002B55D003A900914A46504688
:1007F0004B4B04A9AFF300808046B8F1FF3F06D011
:10080000099B434409939BF80030002B8DD1B9F824
:100810000C305B0679D409981DB0BDE8F08FB5EBBC
:100820000B04F4D023465A4649465046FFF77AFE59
:100830000130ECD0099B2A782344099381E7A1F188
:100840003002092A88BFAB46B1D8079B00E00134CB
:10085000217803EB830302EB4303A1F13002092A61
:10086000F5D92E29A3460793A3D19BF801102A2975
:1008700027D1039B0BF102001A680433002A03936B
:10088000B8BF4FF0FF339BF8021005928346B8BF04
:1008900005938EE7039B073323F007030833039385
:1008A000AEE7494243F00203079104937EE703A9B0
:1008B00000914A4650461A4B04A900F047FA804678
:1008C0009BE70023A1F13002092A0BF1010B0593EC
:1008D0003FF66FAF1BF8011F03EB830302EB4303EB
:1008E000A1F13002092AF5D9059362E7402100F011
:1008F0008BF8C9F80000C9F8100018B14023C9F8F6
:10090000143005E70C23CAF800304FF0FF3083E7BE
:10091000F813010800140108041401080000000085
:10092000250501085FFA81FC810744D00346511E6A
:1009300022B909E09A0709D0013905D3184602788F
:1009400001336245F6D170470020704718460329ED
:100950000CD80029F8D00346014401E08B42F3D0C3
:10096000184613F8012B6245F8D1704710B50CEB0F
:100970000C24024604EB044402E00439032915D98F
:10098000104652F8043B6340A3F1013E2EEA0303F4
:1009900013F0803FF1D00346014401E08B4208D0C0
:1009A000184613F8012B6245F8D110BD10460029F6
:1009B000F1D1002010BD1146C9E700BF70B5114E3E
:1009C000054633680C46BBB12146284600F082FB41
:1009D000431C01460CD0C41C24F00304A04205D0E3
:1009E0002846611A00F076FB013001D0204670BD28
:1009F0004FF0FF34204670BD194600F06BFB3060AD
:100A0000E2E700BF588400202DE9F843CD1C25F013
:100A1000030508350C2D38BF0C25002D064618DBC4
:100A2000A94216D8DFF8DC8000F0D2FAD8F804200A
:100A3000A2B1144603E0636822467BB11C462368DA
:100A40005B1BF8D40B2B1FD89442636854D05360BF
:100A50000CE00C2333600020BDE8F88329463046C3
:100A6000FFF7ACFF431C044619D00560304600F088
:100A7000B1FA04F10B00231D20F00700C21A1CBFBD
:100A80001B1AA350BDE8F88361199442256014BF76
:100A90005160C8F80410635163684B60E6E7D8F80A
:100AA00004701FB33C467F68002FFBD12368394692
:100AB000304604EB030900F00DFB814516D1236895
:100AC0003046ED1A2946FFF779FF01300ED0236832
:100AD000D8F804202B442360536883B1A34203D089
:100AE0001A465B689C42FBD10023B0E70C233046DA
:100AF000336000F06FFAAEE7C8F80430B6E7C8F824
:100B00000470B3E758840020002950D038B551F85C
:100B1000043C0C1F002BB8BFE418054600F058FA3F
:100B2000274A13682BB1A3420CD92168601883426D
:100B30002CD0284663601460BDE8384000F04ABA03
:100B4000A3420FD81A465B68002BF9D111685018E0
:100B5000844217D02CD3636054602846BDE83840E7
:100B600000F038BA11685018A04214D020D821687B
:100B700060188342EFD118685B680844C4E9000339
:100B80005460EAE723680B441360E6E718685B6883
:100B900008442060CDE7206801445018834211606A
:100BA000DBD1D3E900040144C2E90014D5E7704762
:100BB0000C2328462B60BDE8384000F00BBA00BF7C
:100BC0005C8400202DE9F041144641B30AB3064687
:100BD0000D4600F091FA8442074602D8B4EB500F5C
:100BE00013D821463046FFF70FFF804650B1BC4274
:100BF0002246294628BF3A46FFF7ACFB2946304635
:100C0000FFF782FF4046BDE8F081A8464046BDE8B8
:100C1000F081A046FFF778FF4046BDE8F08111461D
:100C2000BDE8F041FFF7F0BE2DE9F84F92461F46B0
:100C30000A698B680C469A42B8BF1A46CAF8002067
:100C400091F843300646DDF8289013B10132CAF816
:100C50000020226891065FD5DAF800300233CAF826
:100C60000030226812F0060F11461DD1E16899424A
:100C7000D8BF114618DD4FF0000804F1190B05E04C
:100C8000E568DAF80030ED1A45450CDD01235A46D7
:100C900039463046C847013008F10108F0D14FF01D
:100CA000FF30BDE8F88F216894F84330003B18BF4F
:100CB00001238A060AD53021E21882F8431094F8FD
:100CC00045105A1C2244023382F8431039463046FC
:100CD00004F14302C8470130E1D0D4E9022023687F
:100CE000DAF8005003F00603042B21691BD08A4276
:100CF00020DD4FF00008521A904400251A3401E01C
:100D0000454517DA0123224639463046C8470130A7
:100D100005F10105F4D1C2E712F0060F0DD0003B3A
:100D200018BF0123D2E7401B8A4220EAE078E2DCC8
:100D30000028E2DC0020BDE8F88FE168DAF8003036
:100D40009942D8BF114696DCAEE700BF2DE9F047C7
:100D500017460A7E84B00C46064698460C9D01F163
:100D6000430C002A35D0A2F15803D9B2202969D802
:100D7000202B67D8DFE813F0E60066006600660007
:100D80006600660066006600660066006600AC00ED
:100D9000700066006600660066007000660066000F
:100DA0006600660021008300C60066006600B6008B
:100DB0006600830066006600EC002B682268181D40
:100DC0006169286010061B6802D4520600F1E080B9
:100DD00019600023E14623613B4621463046CDF8A9
:100DE000008003AAFFF720FF013020D04A46394691
:100DF00030462369C047013019D02368E0689B075B
:100E0000DDF80C9018D5484516DD002504F1190AC7
:100E100004E0E068A0EB0903AB420DDD012352467C
:100E200039463046C047013005F10105F1D14FF098
:100E3000FF3004B0BDE8F0874845B8BF484604B06D
:100E4000BDE8F087012084F8422004F14209002324
:100E5000206184F84330BFE72A682368111D180613
:100E6000296002D4590600F19580106801460028D7
:100E70006268C0F293804FF00A0E534815E0206874
:100E80002B6810F0800F53F8041B02D1400648BFB6
:100E900089B26F2A14BF4FF00A0E4FF0080E4A486D
:100EA0002B600023626884F84330002AA26051DB83
:100EB000236823F00403236000294BD1002A7BD14F
:100EC000E146BEF1080F56D0ACEB0903236183E77E
:100ED0002A680120116804322A6004F1420984F86A
:100EE0004210B4E72B6800211A1D2A60D3F8009045
:100EF00062684846FFF716FD002863D0A0EB0900A2
:100F00006060A4E7236843F02003236078222F4821
:100F100084F845202A6813F0800F52F8041B03D18F
:100F200013F0400F18BF89B22A60DA0744BF43F0BC
:100F30002003236019B9236823F0200323604FF0B6
:100F4000100EAEE75823204884F845302368E1E7C7
:100F50002368DBE77546E146B1FBF5F30A4605FB7E
:100F6000131A194610F80A30AA4209F8013DF3D2C3
:100F7000BEF1080FA8D12368DD07A5D562682369F3
:100F80009A42A1DC302309F1FF3989F800309BE750
:100F900019801EE7B2F90010084668E72D20002AE4
:100FA000A26084F8430002DB23F0040323600A25D7
:100FB0000548AE464942CEE7037804F1420984F879
:100FC00042307EE7606842E70C14010820140108F3
:100FD000704700BF704700BF88420ED98B1883420C
:100FE0000BD900EB020C002A6DD0624613F801CD3C
:100FF000994202F801CDF9D170470F2A0FD8034664
:1010000002F1FF3C002A5ED00CF1010C013B8C4444
:1010100011F8012B614503F8012FF9D1704740EA1F
:1010200001039B0750D1A2F1100370B501F1200C10
:1010300023F00F0501F1100E00F11004AC441B0960
:101040005EF8105C0EF1100E44F8105C5EF81C5C4B
:10105000103444F81C5C5EF8185C44F8185C5EF8C8
:10106000145CE64544F8145CEAD1013312F00C0F2D
:1010700001EB031102F00F0400EB031328D08E469E
:10108000043C24F003064FEA940C1E441C1F5EF837
:10109000045B44F8045FB442F9D10CF1010402F09E
:1010A000030203EB840301EB840102F1FF3C4AB12C
:1010B0000CF1010C013B8C4411F8012B614503F844
:1010C000012FF9D170BD7047034602F1FF3C9BE749
:1010D0002246EAE7002238B5064D044608462A6053
:1010E00000F012F8431C00D038BD2B68002BFBD059
:1010F000236038BD6084002051F8043C181F002B89
:10110000BCBF0B58C0187047044A05491368002B30
:1011100008BF0B46184410601846704764840020CE
:10112000688400206E2F610037324D487A2C20559C
:101130005342202F312E3500554E535550504F52AB
:1011400054454420434C4F434B0034384D487A2C8F
:1011500020555342202F310073757370656E64659E
:101160006400636F6E6E65637465640077616974B3
:10117000696E6720666F7220686F7374006F7065A8
:101180006E00636C6F736564002044534F2051758B
:1011900061642057656220436F6E74726F6C00202B
:1011A000667720302E372E302B30656661386539F2
:1011B0002D303932343031333700204857202573F1
:1011C00020204446552025730020436C6F636B201C
:1011D000257300204578697420746F2073636F70E5
:1011E000653A20686F6C64205B5D202B20282920E5
:1011F000666F72203220730020286F7220706F7724
:101200006572206F6E20686F6C64696E6720282994
:1012100020666F72207468652066616C6C62616321
:101220006B290020526563656976696E672066697F
:10123000726D77617265207570646174652E2E2EF3
:101240000020496E7374616C6C696E672075706400
:101250006174652C2072657374617274696E672E97
:101260002E2E002052656C656173652074686520C0
:10127000627574746F6E7320746F20657869742E54
:101280002E2E00205553423A202025730020506F07
:1012900072743A202573002042617474657279205B
:1012A000256C75206D56202020557020256C7520EA
:1012B0007300204163713A202025732020256C752E
:1012C00020532F7320206672616D657320256C7525
:1012D000002044697361626C656420737472617983
:1012E0002049525120256C750073746F70706564CD
:1012F000006E6F726D616C006175746F0073696E62
:10130000676C6500726F6C6C0044534F20517561BF
:101310006420636F6D6D756E6974790044534F205E
:101320005175616420436F6E74726F6C20506F72E0
:101330007400060201000000E9120108F112010820
:10134000F8120108FD1201080413010801AA303146
:10135000323334353637383941424344454600004C
:1013600000000000091301088A11010800000000B4
:101370001C13010809024B000201008032080B0017
:101380000202020000090400000102020004052418
:1013900000200105240100010424020605240600A2
:1013A000010705810308000109040100020A000089
:1013B00000070502024000000705820240000012FB
:1013C000010002EF020140091201000100010203C5
:1013D0000100000000000000E5F1000849F20008EB
:1013E0004DF200086DF2000885F3000831F40008A2
:1013F0000000000000000000232D302B2000000022
:10140000686C4C00656667454647000030313233F2
:1014100034353637383941424344454600000000F0
:10142000303132333435363738396162636465665A
:0414300000000000B8
:08143400A8ECFF7F010000009D
:10143C00FFFFFFFFFFFF000061E500080C0000004C
:10144C00A06F0020C000000000000000FF000000A2
:10145C0024300020000000000000000068000000A4
:10146C00D0000000000000000000000000000000A0
:10147C000000000000000000000000000000000060
:10148C000000000000000000000000000000000050
:10149C000000000000000000000000000000000040
:1014AC00254B264A80B55A6002F188325A604AF6BA
:1014BC00AA2E00224F1C224E7F088A420DD3802276
:1014CC001A61BFF34F8F1F491F4BCA6802F4E062C9
:1014DC001343CB60BFF34F8FFEE702241C6102F174
:1014EC00006404F540445C6142241C61DC68E40740
:1014FC000CD401241C6122FA04F402F500624FEAB8
:10150C005208A04505D800241C61D6E7C6F800E0B7
:10151C00ECE7A742F7D930F814C0650005F1006577
:10152C0005F540451FFA8CFCA5F800C0DD68ED07F9
:10153C00FCD40134E5E700BF0020024023016745DD
:0C154C000030004000ED00E00400FA0553
:00000001FF
